:020000040800F2
:1000000028080020E1010008111E0008871D0008D3
:100010000D1E000875050008D1260008000000002C
:100020000000000000000000000000003D1E00086D
:100030007905000800000000131E0008951E000846
:10004000FB010008FB010008FB010008FB010008A0
:10005000FB010008FB010008FB010008FB01000890
:10006000FB010008FB010008FB010008FB01000880
:10007000FB010008FB010008FB010008FB01000870
:10008000FB010008FB010008FB010008FB01000860
:10009000FB010008FB010008FB010008FB01000850
:1000A000FB010008FB010008FB010008FB01000840
:1000B000FB010008F51E0008FB010008FB01000819
:1000C000FB010008FB010008FB010008FB01000820
:1000D000FB01000891260008FB010008FB01000855
:1000E000FB010008FB010008FB010008FB01000800
:1000F000FB010008FB010008FB010008FB010008F0
:10010000FB010008FB010008C11F0008FB010008FB
:10011000FB010008FB010008FB010008FB010008CF
:10012000FB010008FB010008FB010008FB010008BF
:1001300000F002F800F044F80AA090E8000C8244B5
:100140008344AAF10107DA4501D100F039F8AFF292
:10015000090EBAE80F0013F0010F18BFFB1A43F0A5
:10016000010318474427000064270000103A24BF09
:1001700078C878C1FAD8520724BF30C830C144BF0C
:1001800004680C607047000000230024002500264E
:10019000103A28BF78C1FBD8520728BF30C148BFEA
:1001A0000B60704703681B0A28BF41F08001E429F7
:1001B00000F04480002070471FB51FBD10B510BD72
:1001C00000F0A6F91146FFF7F7FF02F0E9FA00F098
:1001D000C4F903B4FFF7F2FF03BC02F097FA000082
:1001E0000948804709480047FEE7FEE7FEE7FEE7CB
:1001F000FEE7FEE7FEE7FEE7FEE7FEE70448054907
:10020000054A064B704700009D1E0008310100089A
:1002100028020020280800202804002028040020AC
:10022000704700000FB4044910B503AA029800F00B
:1002300041F910BC5DF814FB140000202DE9F041D9
:100240008046D21D22F007020025D2E90002F529DE
:1002500015A614D0011E72F1000106DA0023D0EBBE
:10026000030063EB020211A608E0D8F800108B0728
:1002700001D50FA602E0490701D50EA601251146BA
:10028000002408F1240704E000F076F830323A55F3
:10029000641C50EA0102F7D12B4632462146404603
:1002A000BDE8F04100F0ADB8000000002D000000F6
:1002B0002B000000200000002DE9F0410F4605460C
:1002C000002028622846E968884770B3252805D0B1
:1002D000D5E901219047286A401CF2E7E9682846E1
:1002E000002688476C2804460AD0682C08D04C2C7D
:1002F00035D06A2C31D0742C31D07A2C2FD016E026
:10030000E968064628468847B042044608D16C2E64
:1003100023D04FF480662846E9688847044606E003
:100320006C2E03D04FF4807601E01EE04026E4B14D
:10033000A4F14100192802D8203446F400663A4658
:10034000214628462E60FFF72DFF60B1012808D016
:10035000FF1D27F007070837B4E78026DBE70026F4
:10036000D9E73F1DAEE72046B2E7286ABDE8F08135
:10037000704770477047704730B5B0F10A024FEAD6
:10038000900E71F100034EEA817EB0EB0E0061EB3E
:1003900091014FEA101E4EEA017E10EB0E0041EB78
:1003A00011114FEA102E4EEA016E10EB0E0041EBD8
:1003B00011214FEA104E4EEA014E10EB0E0041EBB8
:1003C0001141401841F100014FEAD00040EA41706C
:1003D0004FEAD10110EB80054FEA810444EA9074A2
:1003E00044EB01046D1944EB0404521BA3414FF08C
:1003F000000348BF0A3200D530BD401C41F1000166
:1004000030BD2DE9F0470D4699469246044600F16D
:1004100024080168880604D5E06921F010012160F4
:1004200000E00120A84201DD471B00E00027A16990
:100430007A1902EB0900081AA0612078C00602D4DC
:100440002046AFF30080002608E0D4E901211AF825
:1004500006009047206A401C761C20624E45F4DB63
:100460002078C0060AD52046AFF3008006E0D4E924
:10047000012130209047206A401C2062381EA7F1DD
:100480000107F4DC07E0D4E9012118F805009047E2
:10049000206A401C2062281EA5F10105F3DC2046DD
:1004A000AFF300802078000602D50220BDE8F08777
:1004B0000120FBE7074B70B50D467B4400F011F8B7
:1004C0000446284600F020F810B14FF0FF3070BD10
:1004D000204670BDC722000001694A1C02610878ED
:1004E000704700B58FB0CDE9013100210591054974
:1004F0007944CDE9031011466846FFF7DDFE0FB0E1
:1005000000BD0000E5FFFFFF007B00F080007047AA
:10051000754600F02BF8AE4605006946534620F0BC
:100520000700854618B020B5FFF768FEBDE82040FB
:100530004FF000064FF000074FF000084FF0000B9F
:1005400021F00701AC46ACE8C009ACE8C009ACE852
:10055000C009ACE8C0098D46704710B50446AFF33A
:1005600000802046BDE81040FFF733BE00487047CA
:10057000C401002000BFFEE77047000070B50446CC
:10058000002594F82100022803D00420A06301254F
:10059000C1E02068006820F00E0021680860206833
:1005A000006820F00100216808605C4920688842EA
:1005B00052D95A4978392068884201D1012047E050
:1005C000564964392068884201D1102040E05349DF
:1005D00050392068884201D1801539E04F493C39B3
:1005E0002068884201D1801432E04C4928392068C3
:1005F000884202D14FF480302AE0484914392068FB
:10060000884202D14FF4801022E044492068884299
:1006100001D140041CE042492068884201D10120F8
:1006200016E03F4914312068884201D110200FE0C4
:100630003B4928312068884201D1801508E03849BB
:100640003C312068884201D1801401E04FF48030B1
:100650003349091F086051E03049783920688842E1
:1006600001D1012047E02D4964392068884201D139
:10067000102040E0294950392068884201D1801576
:1006800039E026493C392068884201D1801432E0A3
:10069000224928392068884202D14FF480302AE06C
:1006A0001E4914392068884202D14FF4801022E09C
:1006B0001A492068884201D140041CE0184920688A
:1006C000884201D1012016E0154914312068884282
:1006D00001D110200FE0124928312068884201D151
:1006E000801508E00E493C312068884201D1801411
:1006F00001E04FF48030094980394860012084F8D6
:10070000210000BF002084F8200000BF606B10B102
:100710002046616B8847284670BD0000800002407B
:10072000080402402DE9F847024600239C467BE17D
:100730004FF0010808FA03F4D1F8008008EA040039
:10074000A0427DD1DFF8F4A2D1F80480A8EB0A0919
:10075000D0453AD014DCB8F1030F50D009DCB8F121
:10076000000F31D0B8F1010F1CD0B8F1020F49D100
:1007700020E0B8F1110F18D0B8F1120F42D11EE0ED
:10078000B9F5881F25D006DCB9F5803F20D0B9F532
:10079000801F37D11AE0B9F5001F18D0B9F5041F32
:1007A00030D117E0D1F80CC02DE0D1F80C8008F161
:1007B000040C28E0D1F80C8008F1080C23E0D1F8F3
:1007C0000C8008F10C0C1EE000BF00BF00BF00BF92
:1007D00000BF00BFD1F80880B8F1000F02D14FF080
:1007E000040C0BE0D1F80880B8F1010F03D14FF0F1
:1007F000080C146102E04FF0080C546103E04FF064
:10080000000C00E000BF00BFFF2801D8904601E0C7
:1008100002F104084646FF2802D84FEA830803E0A5
:10082000A3F108084FEA88084746D6F800804FF041
:100830000F0909FA07F928EA09080CFA07F900E094
:100840007AE048EA0908C6F80080D1F8048008F088
:100850008058B8F1805F6FD100BFDFF8E481D8F82D
:10086000188048F00108DFF8D891C9F81880C84608
:10087000D8F8188008F00108CDF8008000BF00BF4C
:100880004FEAB9384FEA930958F829504FEA83786C
:100890004FEA18794FF00F0808FA09F825EA080519
:1008A000DFF8A081424502D14FF0000824E0DFF8D4
:1008B0009881424502D14FF001081DE0DFF88C819C
:1008C000424502D14FF0020816E0DFF8848142452C
:1008D00002D14FF003080FE0DFF87881424502D1E2
:1008E0004FF0040808E0DFF87081424502D14FF074
:1008F000050801E04FF006084FEA83794FEA1979BD
:1009000008FA09F848EA0505DFF850814FEA93092B
:1009100048F82950D1F8048008F48038B8F5803FB1
:100920000BD1DFF83C81D8F8008048EA0008DFF8F6
:100930003091C9F800800AE075E0DFF82481D8F82A
:10094000008028EA0008DFF81891C9F80080D1F883
:10095000048008F40038B8F5003F0ED1DFF80081BC
:1009600008F10408D8F8008048EA0008DFF8F090A1
:1009700009F10409C9F800800DE0DFF8E48008F10E
:100980000408D8F8008028EA0008DFF8D49009F1BC
:100990000409C9F80080D1F8048008F48018B8F57B
:1009A000801F0ED1DFF8B88008F10808D8F8008061
:1009B00048EA0008DFF8A89009F10809C9F80080A2
:1009C0000DE0DFF89C8008F10808D8F8008028EADC
:1009D0000008DFF88C9009F10809C9F80080D1F807
:1009E000048008F40018B8F5001F0ED1DFF87080FD
:1009F00008F10C08D8F8008048EA0008DFF8609099
:100A000009F10C09C9F800800DE0DFF8548008F105
:100A10000C08D8F8008028EA0008DFF8449009F1B3
:100A20000C09C9F800805B1CD1F8008028FA03F893
:100A3000B8F1000F7FF47CAEBDE8F887000011101C
:100A40000010024000080140000C0140001001406D
:100A50000014014000180140001C01400800014042
:100A6000000401400AB1016101E00B040361704719
:100A70000148006870470000040000200348006837
:100A800003490978084401490860704704000020C0
:100A90000C00002010B50848006840F0100006491E
:100AA0000860052000F080F80F2000F007F800F043
:100AB0002BF8002010BD00000020024070B5044655
:100AC0000E4800784FF47A71B1FBF0F00C490968D8
:100AD000B1FBF0F5284600F0F7FB08B1012070BD2E
:100AE000102C07D200222146501E00F01EF80548A7
:100AF000046001E00120F2E70020F0E70C00002094
:100B00000000002008000020704701460846002829
:100B100009DB00F01F0301229A4043099B0003F107
:100B2000E023C3F8002100BF70472DE9F05F804645
:100B30000D461646002701F0CDFD074639462A46E8
:100B4000334601F00700C0F1070ABAF1040F02D9D9
:100B50004FF0040A01E0C0F1070AD14600F1040A8F
:100B6000BAF1070F02D24FF0000A01E0A0F1030A28
:100B7000D4464FF0010A0AFA09FAAAF1010A0AEA70
:100B8000020A0AFA0CFA4FF0010B0BFA0CFBABF15C
:100B9000010B0BEA030B4AEA0B042146404601F025
:100BA000A1FDBDE8F09F000000BF00F00702064B6A
:100BB00019684FF6FF031940044B0B4343EA022127
:100BC000014B196000BF70470CED00E00000FA0512
:100BD00070B504460D460CB9012070BD5A48006836
:100BE00000F00700A8420ED25748006820F0070026
:100BF0002843554908600846006800F00700A842ED
:100C000001D00120E9E7207800F0020002281DD180
:100C1000207800F00400042805D14C48406840F4D6
:100C2000E0604A494860207800F00800082805D1B3
:100C30004648406840F46050444948604348406832
:100C400020F0F000A168084340494860207800F097
:100C5000010078B36068012806D13C48006800F4C0
:100C6000003090B90120B8E76068022806D1374803
:100C7000006800F0007040B90120AEE7334800681A
:100C800000F0020008B90120A7E73048406820F0D2
:100C90000300616808432D494860FFF7E9FE0646F6
:100CA00009E0FFF7E5FE801B41F28831884202D956
:100CB000032092E707E02548406800F00C006168D7
:100CC000B0EB810FEDD12048006800F00700A8428A
:100CD0000ED91D48006820F0070028431A49086013
:100CE0000846006800F00700A84201D0012074E720
:100CF000207800F00400042807D11448406820F44C
:100D0000E060E168084311494860207800F008007D
:100D1000082808D10D48406820F46050216940EA55
:100D2000C1000A49486000F03FF808494968C1F32A
:100D30000311074A515CC84006490860064800682C
:100D4000FFF7BCFE002048E70020024000100240F0
:100D500090280008000000200800002001480068DA
:100D6000704700000000002000B5FFF7F7FF0449BE
:100D70004968C1F30221034A515CC84000BD00002C
:100D800000100240A028000800B5FFF7E7FF044963
:100D90004968C1F3C221034A515CC84000BD00004C
:100DA00000100240A0280008F0B585B00FF26C0CCE
:100DB0009CE8E01001A8A0E8E0101CA52D680095B3
:100DC00000210022002300240020194D696801F051
:100DD0000C05F5B1042D02D0082D19D101E01548FC
:100DE00019E001ADC1F38346AC5D01F4803555B126
:100DF0000F4D6D68C5F340451DF805200D4D654349
:100E0000B5FBF2F302E00C4D04FB05F3184602E0DB
:100E100000BF084800BF00BF05B0F0BD02030405D5
:100E2000060708090A0B0C0D0E0F10100102000036
:100E30000010024000127A0000093D00F8B5044697
:100E40000CB90120F8BD207800F00100002878D00E
:100E5000F848406800F00C0004280CD0F5484068C1
:100E600000F00C00082811D1F248406800F48030EE
:100E7000B0F5803F0AD1EF48006800F40030002848
:100E80005FD0606800285CD10120DBE700BF6068AC
:100E9000B0F5803F06D1E748006840F48030E5496E
:100EA000086028E0606858B9E248006820F48030A3
:100EB000E04908600846006820F4802008601AE0D5
:100EC0006068B0F5A02F0BD1DA48006840F48020AC
:100ED000D84908600846006840F4803008600AE09D
:100EE000D448006820F48030D24908600846006881
:100EF00020F48020086000BF606888B1FFF7B8FD6B
:100F0000054606E0FFF7B4FD401B642801D9032025
:100F100098E7C848006800F400300028F2D010E0DC
:100F2000FFF7A6FD054606E0FFF7A2FD401B64287B
:100F300001D9032086E7BF48006800F4003000288C
:100F4000F2D1207800F00200022857D1B948406859
:100F500000F00C0050B1B748406800F00C000828C1
:100F600018D1B448406800F4803098B9B14800689E
:100F700000F0020020B12069012801D0012061E7C2
:100F8000AC48006820F0F800616940EAC100A94956
:100F9000086033E02069E8B10120A7490860FFF745
:100FA00067FD054606E0FFF763FD401B022801D9F7
:100FB000032047E79F48006800F002000028F2D0B5
:100FC0009C48006820F0F800616940EAC100994936
:100FD000086013E0002098490860FFF749FD0546C6
:100FE00006E0FFF745FD401B022801D9032029E751
:100FF0009048006800F002000028F2D1207800F04C
:10100000080008282DD1A069B8B101208B490860DB
:10101000FFF72EFD054606E0FFF72AFD401B0228DC
:1010200001D903200EE78348406A00F0020000283F
:10103000F2D0012000F0EEFE13E000207F490860AE
:10104000FFF716FD054606E0FFF712FD401B0228DC
:1010500001D90320F6E67748406A00F00200002834
:10106000F2D1207800F00400042873D100277148E1
:10107000C06900F0805070B900BF6E48C06940F090
:1010800080506C49C8610846C06900F080500090EB
:1010900000BF00BF01276A48006800F48070B0B943
:1010A0006748006840F4807065490860FFF7E0FC1D
:1010B000054606E0FFF7DCFC401B642801D903204D
:1010C000C0E65F48006800F480700028F2D000BFDE
:1010D000E068012806D15748006A40F001005549F0
:1010E000086227E0E06858B95248006A20F0010021
:1010F000504908620846006A20F00400086219E0BE
:10110000E06805280BD14B48006A40F004004949CB
:1011100008620846006A40F0010008620AE045489B
:10112000006A20F00100434908620846006A20F086
:101130000400086200BFE068A0B1FFF799FC054613
:1011400009E0FFF795FC401B41F28831884202D943
:10115000032077E622E03748006A00F0020000280A
:10116000EFD012E0FFF784FC054608E0FFF780FCB3
:10117000401B41F28831884201D9032062E62D48A4
:10118000006A00F002000028F0D1012F05D12948A3
:10119000C06920F080502749C86100BFE069C8B32A
:1011A0002448406800F00C00082860D0E06902285C
:1011B00048D1002020490866FFF75AFC054606E0A2
:1011C000FFF756FC401B022801D903203AE61948D4
:1011D000006800F000700028F2D1206AB0F5803F6E
:1011E00007D11448406820F40030A1680843114931
:1011F0004860D4E9080108430E49496821F4741194
:1012000008430C49486001200B490866FFF730FC91
:10121000054607E03DE0FFF72BFC401B022801D903
:1012200003200FE60348006800F000700028F2D0A9
:101230002FE00000001002400000424280044242C1
:1012400000700040002014490866FFF711FC0546B5
:1012500006E0FFF70DFC401B022801D90320F1E551
:101260000E48006800F000700028F2D111E0E0693B
:10127000012800D1E6E50948466806F48031206A75
:10128000814204D106F47011606A814201D00120CC
:10129000D8E50020D6E500000000424200100240E0
:1012A000042808D14FF0E021096941F004014FF012
:1012B000E022116107E04FF0E021096921F004010B
:1012C0004FF0E0221161704770B504462546681E54
:1012D000B0F1807F01D301200FE0681E4FF0E021C4
:1012E00048610F214FF0FF3001F0FCF900204FF072
:1012F000E021886107200861002070BD70477047B9
:1013000010B504463148007800F0800000285BD119
:101310002E48007800F04000D0B12C48007840F012
:1013200080002A4908700021294800F055FB29490E
:10133000088027480068006A20F00A0024490968EC
:10134000086223480068006A2149096808623BE096
:1013500000201E4908701F4908801C48007840F092
:1013600040001A49087000BF19480068006A41F23D
:101370001111084068B916480068006A89100840D1
:1013800038B913480068006820F001001049096866
:10139000086000BF00200E49096848620C480068D8
:1013A000006A20F00A000A490968086208480068D3
:1013B000006A07490968086205480068006840F04B
:1013C000010003490968086010BD00001C000020EE
:1013D000840100201E0000202DE9F04104460D4646
:1013E000164600BF94F83C00012802D10220BDE857
:1013F000F081012084F83C0000BF022084F83D0009
:1014000096B9EB68D5E90012206800F02BFF206840
:10141000806920F00C002168886120688069A968D3
:101420000843216888613DE0042E13D1EB68D5E9BB
:101430000012206800F054FF2068806920F44060AA
:101440002168886120688069A96840EA01202168D4
:10145000886127E0082E12D1EB68D5E900122068D8
:1014600000F05BFF2068C06920F00C002168C861B3
:101470002068C069A96808432168C86112E0EB6868
:10148000D5E90012206800F064FF2068C06920F4EC
:1014900040602168C8612068C069A96840EA0120ED
:1014A0002168C861012084F83D0000BF002084F855
:1014B0003C0000BF00BF9AE710B504460CB90120FC
:1014C00010BD94F83D0028B9002084F83C00204667
:1014D00000F00CF8022084F83D00211D206800F087
:1014E00077FD012084F83D000020E9E710B586B0C3
:1014F000044600BF1748C06940F008001549C8619C
:101500000846C06900F00800019000BF00BF00BF9E
:101510000846806940F0040088610846806900F050
:101520000400019000BF00BF012002900020039042
:10153000022004900320059002A90748FFF7F2F863
:10154000002202213220FFF7F0FA3220FFF7DDFA05
:1015500006B010BD001002400008014070B50446FE
:101560000D4635B1042D0BD0082D10D00C2D1CD1FB
:1015700014E02068C06840F002002168C86015E0EF
:101580002068C06840F004002168C8600EE0206850
:10159000C06840F008002168C86007E02068C068A3
:1015A00040F010002168C86000E000BF00BF0122C9
:1015B0002946206800F05AFD2068806800F0070680
:1015C000062E05D02068006840F001002168086000
:1015D000002070BD10B5044620680069C0F34000CB
:1015E000D8B12068C068C0F34000B0B16FF002000D
:1015F00021680861012020772068806900F00300DD
:1016000018B12046FFF77CFE05E0204600F0ADF85B
:10161000204600F08DF90020207720680069C0F393
:101620008000D8B12068C068C0F38000B0B16FF00E
:10163000040021680861022020772068806900F496
:10164000407018B12046FFF75BFE05E0204600F031
:101650008CF8204600F06CF90020207720680069A3
:10166000C0F3C000D8B12068C068C0F3C000B0B1FA
:101670006FF0080021680861042020772068C069A5
:1016800000F0030018B12046FFF73AFE05E02046BF
:1016900000F06BF8204600F04BF90020207720681E
:1016A0000069C0F30010D8B12068C068C0F3001012
:1016B000B0B16FF010002168086108202077206821
:1016C000C06900F4407018B12046FFF719FE05E02C
:1016D000204600F04AF8204600F02AF90020207742
:1016E0002068006900F0010058B12068C06800F06F
:1016F000010030B16FF0010021680861204600F060
:1017000045F920680069C0F3C01058B12068C0686E
:10171000C0F3C01030B16FF080002168086120462E
:10172000FFF7ECFD20680069C0F3801058B1206815
:10173000C068C0F3801030B16FF0400021680861CC
:10174000204600F062F920680069C0F3401058B1EB
:101750002068C068C0F3401030B16FF020002168ED
:1017600008612046FFF7CBFD10BD704770B50446F9
:101770000D46164600BF94F83C00012801D1022016
:1017800070BD012084F83C0000BF022084F83D00B9
:1017900036B1042E1BD0082E31D00C2E5ED145E080
:1017A0002946206800F07CFC2068806940F0080031
:1017B000216888612068806920F0040021688861C0
:1017C00020688069296908432168886147E02946C3
:1017D000206800F09DFC2068806940F4006021686A
:1017E00088612068806920F48060216888612068B1
:1017F0008069296940EA0120216888612FE0294633
:10180000206800F0C3FC2068C06940F0080021682F
:10181000C8612068C06920F004002168C8612068A0
:10182000C069296908432168C86118E02946206811
:1018300000F0E8FC2068C06940F400602168C861DD
:101840002068C06920F480602168C8612068C06990
:10185000296940EA01202168C86100E000BF00BF9B
:10186000012084F83D0000BF002084F83C0000BF48
:1018700000BF85E710B504460CB9012010BD94F8EF
:101880003D0028B9002084F83C00204600F00CF808
:10189000022084F83D00211D206800F099FB012002
:1018A00084F83D000020E9E710B586B004461C49E5
:1018B0002068884232D100BF1A48C06940F0020057
:1018C0001849C8610846C06900F00200019000BFD5
:1018D00000BF00BF1449486820F4406040F0E06059
:1018E00040F40060486000BF00BF0E48806940F0CF
:1018F00008000C4988610846806900F008000190E2
:1019000000BF00BF2020029002200390012004901D
:101910000320059002A90548FEF704FF06B010BD9C
:10192000000400400010024000000140000C014093
:101930007047000070B504460E460122314620680B
:1019400000F094FB0F492068884203D00E492068BC
:10195000884201D1012000E0002028B12068406CBD
:1019600040F40040216848642068806800F0070562
:10197000062D05D02068006840F00100216808604D
:10198000002070BD002C014000340140104909784E
:1019900001F08001D1B90E49097801F04001A9B1E7
:1019A0000B49097801F03F013F290AD1084909781C
:1019B00041F08001064A11704FF6FF71054A11800F
:1019C00004E003490978491C014A1170704700007E
:1019D0001C0000201E0000200246002031B1042916
:1019E00007D0082908D00C290CD108E01368586BDF
:1019F00009E01368986B06E01368D86B03E013687E
:101A0000186C00E000BF00BF704770477047014688
:101A10000022002391F8392091F83A3042EA03007D
:101A2000704700002DE9F0470446206805682068EB
:101A3000C668206847694FF00008C14605F00F08E6
:101A4000B8F1000F0AD105F0200038B106F02000EF
:101A500020B1204600F0C5FCBDE8F087B8F1000FCA
:101A60006DD007F0010018B906F49070002866D018
:101A700005F0010030B106F4807018B1E06B40F061
:101A80000100E06305F0040030B107F0010018B177
:101A9000E06B40F00200E06305F0020030B107F0B7
:101AA000010018B1E06B40F00400E06305F00800AD
:101AB00030B107F0010018B1E06B40F00800E063BE
:101AC000E06B68B305F0200028B106F0200010B1EB
:101AD000204600F086FC20684069C0F38019E06B66
:101AE00000F0080010B9B9F1000F22D0204600F034
:101AF00058FC2068406900F04000B0B1206840699F
:101B000020F0400021684861606B50B11748616B5C
:101B10004863606BFEF732FD10B1606B416B884724
:101B20000CE02046FFF772FF08E02046FFF76EFF4B
:101B300004E02046FFF76AFF0020E0638CE705F031
:101B4000800030B106F0800018B1204600F06CFD36
:101B500082E705F0400030B106F0400018B12046A1
:101B600000F02FFC78E700BF76E700008F23000825
:101B700010B504460CB9012010BDA06900B100E009
:101B800000BF94F8390028B9002084F838002046B6
:101B900000F028F8242084F839002068C06820F478
:101BA00000502168C860204600F06EFC2068006983
:101BB00020F49040216808612068406920F02A00E4
:101BC000216848612068C06840F400502168C860FE
:101BD0000020E063202084F8390084F83A000020D7
:101BE000CAE7000010B586B004462549206888423F
:101BF00044D100BF2348806940F004002149886136
:101C00000846806900F00400019000BF00BF00BFDB
:101C10000846806940F4804088610846806900F485
:101C20008040019000BF00BF00BF0846806940F0BF
:101C3000010088610846806900F00100019000BF42
:101C400000BF481502900220039001200490032059
:101C5000059002A90C48FEF765FD4FF480600290E4
:101C60000020039002A90848FEF75CFD2520FEF73E
:101C70004CFF032211462520FEF757FF06B010BD8A
:101C800000380140001002400008014010B5034632
:101C900093F83A0020282FD101B10AB9012010BDD4
:101CA00000BF93F83800012801D10220F7E7012096
:101CB00083F8380000BF99629A85DA850020D863DE
:101CC000222083F83A0000BF002083F8380000BFCC
:101CD0001868C06840F480701C68E060186840694B
:101CE00040F001001C6860611868C06840F0200086
:101CF0001C68E0600020D2E70220D0E71D4A01689E
:101D0000914236D11C49098801F4004189BB1A4926
:101D1000098801F4804171B1184909780A2903D072
:101D20000021154A118024E01349098841F400413B
:101D3000114A11801DE0114909780D2906D10E497B
:101D4000098841F480410C4A118012E00B4909785E
:101D5000094A1288C2F30D02094B995406490988B1
:101D6000491C054A118011460988C72901DD002157
:101D70001180704700380140180000201A00002030
:101D800020000020704700BFFEE7000000B585B0CE
:101D900000BF1B48806940F0080019498861084667
:101DA000806900F00800009000BF00BF00BF084637
:101DB000806940F0400088610846806900F040007A
:101DC000009000BF00BF20200190012002900390EE
:101DD0000320049001A90B48FEF7A4FC20200190E9
:101DE00001A90948FEF79EFC012220210548FEF7C3
:101DF00039FE012220210448FEF734FE05B000BD63
:101E000000100240000C01400018014000BFFEE736
:101E10007047704708B508490968C9084FF47A72D5
:101E2000B1FBF2F14143009100BF00BF00994A1E8F
:101E300000920029F9D108BD00000020704730B59C
:101E40008FB0054600240120059000040690002074
:101E5000079002200C90C1030D910E9505A8FEF786
:101E6000EDFF04460CB100BFFEE70F2000900220FA
:101E70000190002002904FF48060039000200490B5
:101E800002216846FEF7A4FE04460CB100BFFEE73F
:101E90000FB030BD10B5FEF7F1FD10BD1148006860
:101EA00040F001000F490860084640680E490840AC
:101EB0000C494860084600680C4908400949086018
:101EC0000846006820F4802008600846406820F436
:101ED000FE0048604FF41F008860C8030449086092
:101EE00070470000001002400000FFF8FFFFF6FE00
:101EF00008ED00E010B50248FFF76CFB10BD0000D4
:101F00002801002070B504460D46104810490860AD
:101F10000846456000218160C4600161FFF7AAFCAA
:101F200060200C490860204604EBD0714910094A32
:101F3000516002201146886004220548FFF716FC14
:101F400004210348FFF7F6FC70BD000000040040C8
:101F500028010020680100207FB505460C46164880
:101F6000164908600846446000218160C56001612F
:101F7000FFF7A2FA002000900120019000200290BB
:101F800001200390002269460C48FFF725FA002142
:101F90000A48FFF7E3FA09480068C06840F001000A
:101FA00006490968C860002202213220FEF7BDFD03
:101FB0003220FEF7AAFD7FBD000C00408401002006
:101FC00010B50248FFF706FB10BD00008401002099
:101FD00010B50268204B98420ED0204B98420BD08F
:101FE000B0F1804F08D01E4B984205D01D4B98424F
:101FF00002D01D4B984203D122F070024B681A4365
:10200000154B98420ED0154B98420BD0B0F1804F33
:1020100008D0134B984205D0124B984202D0124B75
:10202000984203D122F44072CB681A4322F0800315
:102030004C6943EA040202608B68C3620B688362E6
:10204000054B984202D0054B984201D10B690363BE
:102050000123436110BD0000002C01400034014009
:102060000004004000080040000C004030B501F0C2
:102070001F05012404FA05F3046A9C430462046A00
:1020800001F01F0502FA05F52C43046230BD000083
:1020900010B504210148FFF79FFC10BD2801002066
:1020A00030B5056A25F001050562026A4368846956
:1020B00024F0700424F003040D682C4322F0020283
:1020C0008D682A43104DA84200D103E00F4DA8426D
:1020D00006D100BF22F00802CD682A4322F0040294
:1020E000094DA84202D0094DA84207D123F48073BC
:1020F00023F400734D692B438D692B434360846146
:102100004D684563026230BD002C0140003401403F
:1021100030B5056A25F010050562026A43688469D6
:1021200024F4E04424F440740D6844EA052422F0C9
:1021300020028D6842EA0512124DA84200D103E048
:10214000114DA84207D100BF22F08002CD6842EABB
:10215000051222F040020B4DA84202D00A4DA842BF
:1021600009D123F4806323F400634D6943EA8503B6
:102170008D6943EA8503436084614D68856302622B
:1021800030BD0000002C01400034014030B5056A2C
:1021900025F480750562026A4368C46924F07004FE
:1021A00024F003040D682C4322F400728D6842EA87
:1021B0000522124DA84200D103E0114DA84207D1DB
:1021C00000BF22F40062CD6842EA052222F4806258
:1021D0000A4DA84202D00A4DA84209D123F48053E7
:1021E00023F400534D6943EA05138D6943EA05134F
:1021F0004360C4614D68C563026230BD002C01407C
:102200000034014030B5056A25F480550562036A43
:102210004468C26922F4E04222F440720D6842EA46
:10222000052223F400538D6843EA0533084DA84284
:1022300002D0084DA84204D124F480444D6944EAF8
:1022400085144460C2614D680564036230BD0000BE
:10225000002C014000340140014908607047000033
:102260003804004070B50C461546066A26F0010693
:1022700006628169026A154EB0420ED0144EB04219
:102280000BD0B0F1804F08D0124EB04205D0124EA4
:10229000B04202D0114EB04201D1012600E000262A
:1022A0001EB121F00301294301E041F0010121F0B9
:1022B000F001F02606EA0316314322F00A0204F088
:1022C0000A0632438161026270BD0000002C0140A9
:1022D000003401400004004000080040000C0040B1
:1022E00070B50C461546066A26F01006066281692E
:1022F000026A21F4407141EA052121F470414FF452
:10230000704606EA0336314322F0A002A02606EA10
:10231000041632438161026270BD70B50C461546E9
:10232000066A26F480760662C169026A21F003011A
:10233000294321F0F001F02606EA0316314322F486
:1023400000724FF4007606EA04263243C16102624D
:1023500070BD70B50C461546066A26F480560662B6
:10236000C169026A21F4407141EA052121F47041FA
:102370004FF4704606EA0336314322F400524FF41C
:10238000005606EA04363243C161026270BD70B580
:1023900005466C6A0020E085E0842046FFF736FBA6
:1023A00070BD0168C96821F490710268D16001684C
:1023B000496921F0010102685161202180F83A1039
:1023C000704710B504462068C06820F040002168BE
:1023D000C860202084F839002046FFF7D3FC002095
:1023E00010BD70B5044694F83A0022284AD1A0687E
:1023F000B0F5805F13D1A56A206940B920684068B4
:10240000C0F308002880A06A801CA06219E0206840
:102410004068C0B22880A06A401CA06211E0206918
:1024200038B920684068C1B2A26A501CA06211701D
:1024300007E02068406800F07F01A26A501CA0629B
:102440001170E08D401E80B2E085C8B92068C06878
:1024500020F020002168C8602068C06820F48070E7
:102460002168C8602068406920F001002168486147
:10247000202084F83A002046FFF740FC002070BD81
:102480000020FCE70220FAE770B5044621680969DC
:1024900021F44051E2681143226811612269A16868
:1024A0001143626941EA02052168C96841F20C6280
:1024B000914329432268D1602168496921F4407120
:1024C000A269114322685161564A2168914254D150
:1024D000FEF75AFC00EBC00101EB001162689200AC
:1024E000B1FBF2F100EBC00202EB001263689B004B
:1024F000B2FBF3F26423B2FBF3F202EBC20303EB91
:102500000212A1EB8201322202EB01116422B1FB23
:10251000F2F101F0F00100EBC00202EB001263687F
:102520009B00B2FBF3F26423B2FBF3F201EB021265
:1025300000EBC00101EB001163689B00B1FBF3F1FC
:1025400000EBC00303EB00136668B600B3FBF6F3C1
:102550006426B3FBF6F303EBC30606EB0313A1EB10
:102560008301322303EB01116423B1FBF3F101F08A
:102570000F0111442268916053E0FEF7F5FB00EB78
:10258000C00101EB001162689200B1FBF2F100EBB7
:10259000C00202EB001263689B00B2FBF3F26423FB
:1025A000B2FBF3F202EBC20303EB0212A1EB8201D6
:1025B000322202EB01116422B1FBF2F101F0F001D1
:1025C00000EBC00202EB001263689B00B2FBF3F267
:1025D0006423B2FBF3F201EB021200EBC00101EB4A
:1025E000001163689B00B1FBF3F100EBC00303EB48
:1025F00000136668B600B3FBF6F36426B3FBF6F38C
:1026000003EBC30606EB0313A1EB8301322303EBB9
:1026100001116423B1FBF3F101F00F0111442268B1
:10262000916070BD00380140014691F839002128C1
:102630002CD18868B0F5805F0FD10A6A1088C0F38A
:1026400008000B685860086918B9086A801C08629D
:1026500009E0086A401C086205E00B6A581C086221
:1026600018780B685860C88C401E80B2C88458B96E
:102670000868C06820F080000B68D8600868C068EF
:1026800040F040000B68D860002070470220FCE753
:1026900010B500240C48FFF7C5F900BF01E0641C29
:1026A00000BF0948FFF7B3F92028F8D100BF002484
:1026B00001E0641C00BF012204490348FFF7E6FA69
:1026C0000028F6D100BF10BDE80000201A0000204D
:1026D00000BFFEE702480068C0F302207047000018
:1026E0000CED00E010B5002804DB0A07130E054AC4
:1026F000135406E00A07140E034A00F00F031B1FD1
:10270000D45410BD00E400E018ED00E000BF7047B5
:1027100010B504460420FEF7C3FD0148046010BD57
:102720001000002030B50446002504E04FF47A7014
:1027300000F004F86D1CA542F8D330BD70B5034617
:1027400000224FF0E02675690D4E366803FB06F453
:102750004FF0E026B16910E04FF0E026B069884202
:102760000BD0884202D20E1A324402E02E1A0E44D6
:1027700032440146A24200D300E0EDE700BF70BD45
:102780001000002000BF054A126802F04002002A33
:10279000F9D0C2B2014B1B1D1A60704700380140CE
:1027A00000BFFEF777F94FF4E010FFF748FB482031
:1027B000FFF7AEFF4FF4E13000F04EF8FFF7E6FA16
:1027C000002140F28330FFF79DFB47214FF6FF7059
:1027D000FFF7C2FB33E00A20FFF7A4FFFFF758FC26
:1027E000461C3046FFF738FDFFF752FCB0F5967FE8
:1027F00002D10020FFF730FD1148007800F0800082
:10280000E8B10F48007800F03F00C51704464FF6C6
:10281000FF7200262146A1FB020705FB027204FBA2
:102820000625044607480068241845F1000522469D
:102830002B4605A0FDF7F6FC002001490870CAE709
:102840001C0000201E000020484947483A256C6CB7
:10285000642075730D0A000010B5044609480A4942
:1028600008600846446000218160C16001618161A7
:102870000C214161FFF77CF9012204490248FFF76E
:1028800005FA10BD00380140E80000201A000020C1
:102890000000000000000000010203040607080910
:1028A0000000000001020304C82800080000002006
:1028B000200000006C010008E8280008200000202B
:1028C00008080000880100080024F400000000004F
:1028D00010000000010000000000000000000000E7
:0828E0000000000000000000F0
:0400000508000131BD
:00000001FF
