:020000040800F2
:1000000068080020E1010008111E0008871D000893
:100010000D1E000875050008C1260008000000003C
:100020000000000000000000000000003D1E00086D
:100030007905000800000000131E0008951E000846
:10004000FB010008FB010008FB010008FB010008A0
:10005000FB010008FB010008FB010008FB01000890
:10006000FB010008FB010008FB010008FB01000880
:10007000FB010008FB010008FB010008FB01000870
:10008000FB010008FB010008FB010008FB01000860
:10009000FB010008FB010008FB010008FB01000850
:1000A000FB010008FB010008FB010008FB01000840
:1000B000FB010008F51E0008FB010008FB01000819
:1000C000FB010008FB010008FB010008FB01000820
:1000D000FB01000881260008FB010008FB01000865
:1000E000FB010008FB010008FB010008FB01000800
:1000F000FB010008FB010008FB010008FB010008F0
:10010000FB010008FB010008C11F0008FB010008FB
:10011000FB010008FB010008FB010008FB010008CF
:10012000FB010008FB010008FB010008FB010008BF
:1001300000F002F800F044F80AA090E8000C8244B5
:100140008344AAF10107DA4501D100F039F8AFF292
:10015000090EBAE80F0013F0010F18BFFB1A43F0A5
:100160000103184784360000A4360000103A24BF6B
:1001700078C878C1FAD8520724BF30C830C144BF0C
:1001800004680C607047000000230024002500264E
:10019000103A28BF78C1FBD8520728BF30C148BFEA
:1001A0000B60704703681B0A28BF41F08001E429F7
:1001B00000F04480002070471FB51FBD10B510BD72
:1001C00000F0A6F91146FFF7F7FF02F0B1FA00F0D0
:1001D000C4F903B4FFF7F2FF03BC02F08FFA00008A
:1001E0000948804709480047FEE7FEE7FEE7FEE7CB
:1001F000FEE7FEE7FEE7FEE7FEE7FEE70448054907
:10020000054A064B704700009D1E0008310100089A
:1002100068020020680800206804002068040020AC
:10022000704700000FB4044910B503AA029800F00B
:1002300041F910BC5DF814FB580000202DE9F04195
:100240008046D21D22F007020025D2E90002F529DE
:1002500015A614D0011E72F1000106DA0023D0EBBE
:10026000030063EB020211A608E0D8F800108B0728
:1002700001D50FA602E0490701D50EA601251146BA
:10028000002408F1240704E000F076F830323A55F3
:10029000641C50EA0102F7D12B4632462146404603
:1002A000BDE8F04100F0ADB8000000002D000000F6
:1002B0002B000000200000002DE9F0410F4605460C
:1002C000002028622846E968884770B3252805D0B1
:1002D000D5E901219047286A401CF2E7E9682846E1
:1002E000002688476C2804460AD0682C08D04C2C7D
:1002F00035D06A2C31D0742C31D07A2C2FD016E026
:10030000E968064628468847B042044608D16C2E64
:1003100023D04FF480662846E9688847044606E003
:100320006C2E03D04FF4807601E01EE04026E4B14D
:10033000A4F14100192802D8203446F400663A4658
:10034000214628462E60FFF72DFF60B1012808D016
:10035000FF1D27F007070837B4E78026DBE70026F4
:10036000D9E73F1DAEE72046B2E7286ABDE8F08135
:10037000704770477047704730B5B0F10A024FEAD6
:10038000900E71F100034EEA817EB0EB0E0061EB3E
:1003900091014FEA101E4EEA017E10EB0E0041EB78
:1003A00011114FEA102E4EEA016E10EB0E0041EBD8
:1003B00011214FEA104E4EEA014E10EB0E0041EBB8
:1003C0001141401841F100014FEAD00040EA41706C
:1003D0004FEAD10110EB80054FEA810444EA9074A2
:1003E00044EB01046D1944EB0404521BA3414FF08C
:1003F000000348BF0A3200D530BD401C41F1000166
:1004000030BD2DE9F0470D4699469246044600F16D
:1004100024080168880604D5E06921F010012160F4
:1004200000E00120A84201DD471B00E00027A16990
:100430007A1902EB0900081AA0612078C00602D4DC
:100440002046AFF30080002608E0D4E901211AF825
:1004500006009047206A401C761C20624E45F4DB63
:100460002078C0060AD52046AFF3008006E0D4E924
:10047000012130209047206A401C2062381EA7F1DD
:100480000107F4DC07E0D4E9012118F805009047E2
:10049000206A401C2062281EA5F10105F3DC2046DD
:1004A000AFF300802078000602D50220BDE8F08777
:1004B0000120FBE7074B70B50D467B4400F011F8B7
:1004C0000446284600F020F810B14FF0FF3070BD10
:1004D000204670BD5722000001694A1C026108785D
:1004E000704700B58FB0CDE9013100210591054974
:1004F0007944CDE9031011466846FFF7DDFE0FB0E1
:1005000000BD0000E5FFFFFF007B00F080007047AA
:10051000754600F02BF8AE4605006946534620F0BC
:100520000700854618B020B5FFF768FEBDE82040FB
:100530004FF000064FF000074FF000084FF0000B9F
:1005400021F00701AC46ACE8C009ACE8C009ACE852
:10055000C009ACE8C0098D46704710B50446AFF33A
:1005600000802046BDE81040FFF733BE00487047CA
:100570000802002000BFFEE77047000070B5044687
:10058000002594F82100022803D00420A06301254F
:10059000C1E02068006820F00E0021680860206833
:1005A000006820F00100216808605C4920688842EA
:1005B00052D95A4978392068884201D1012047E050
:1005C000564964392068884201D1102040E05349DF
:1005D00050392068884201D1801539E04F493C39B3
:1005E0002068884201D1801432E04C4928392068C3
:1005F000884202D14FF480302AE0484914392068FB
:10060000884202D14FF4801022E044492068884299
:1006100001D140041CE042492068884201D10120F8
:1006200016E03F4914312068884201D110200FE0C4
:100630003B4928312068884201D1801508E03849BB
:100640003C312068884201D1801401E04FF48030B1
:100650003349091F086051E03049783920688842E1
:1006600001D1012047E02D4964392068884201D139
:10067000102040E0294950392068884201D1801576
:1006800039E026493C392068884201D1801432E0A3
:10069000224928392068884202D14FF480302AE06C
:1006A0001E4914392068884202D14FF4801022E09C
:1006B0001A492068884201D140041CE0184920688A
:1006C000884201D1012016E0154914312068884282
:1006D00001D110200FE0124928312068884201D151
:1006E000801508E00E493C312068884201D1801411
:1006F00001E04FF48030094980394860012084F8D6
:10070000210000BF002084F8200000BF606B10B102
:100710002046616B8847284670BD0000800002407B
:10072000080402402DE9F847024600239C467BE17D
:100730004FF0010808FA03F4D1F8008008EA040039
:10074000A0427DD1DFF8F4A2D1F80480A8EB0A0919
:10075000D0453AD014DCB8F1030F50D009DCB8F121
:10076000000F31D0B8F1010F1CD0B8F1020F49D100
:1007700020E0B8F1110F18D0B8F1120F42D11EE0ED
:10078000B9F5881F25D006DCB9F5803F20D0B9F532
:10079000801F37D11AE0B9F5001F18D0B9F5041F32
:1007A00030D117E0D1F80CC02DE0D1F80C8008F161
:1007B000040C28E0D1F80C8008F1080C23E0D1F8F3
:1007C0000C8008F10C0C1EE000BF00BF00BF00BF92
:1007D00000BF00BFD1F80880B8F1000F02D14FF080
:1007E000040C0BE0D1F80880B8F1010F03D14FF0F1
:1007F000080C146102E04FF0080C546103E04FF064
:10080000000C00E000BF00BFFF2801D8904601E0C7
:1008100002F104084646FF2802D84FEA830803E0A5
:10082000A3F108084FEA88084746D6F800804FF041
:100830000F0909FA07F928EA09080CFA07F900E094
:100840007AE048EA0908C6F80080D1F8048008F088
:100850008058B8F1805F6FD100BFDFF8E481D8F82D
:10086000188048F00108DFF8D891C9F81880C84608
:10087000D8F8188008F00108CDF8008000BF00BF4C
:100880004FEAB9384FEA930958F829504FEA83786C
:100890004FEA18794FF00F0808FA09F825EA080519
:1008A000DFF8A081424502D14FF0000824E0DFF8D4
:1008B0009881424502D14FF001081DE0DFF88C819C
:1008C000424502D14FF0020816E0DFF8848142452C
:1008D00002D14FF003080FE0DFF87881424502D1E2
:1008E0004FF0040808E0DFF87081424502D14FF074
:1008F000050801E04FF006084FEA83794FEA1979BD
:1009000008FA09F848EA0505DFF850814FEA93092B
:1009100048F82950D1F8048008F48038B8F5803FB1
:100920000BD1DFF83C81D8F8008048EA0008DFF8F6
:100930003091C9F800800AE075E0DFF82481D8F82A
:10094000008028EA0008DFF81891C9F80080D1F883
:10095000048008F40038B8F5003F0ED1DFF80081BC
:1009600008F10408D8F8008048EA0008DFF8F090A1
:1009700009F10409C9F800800DE0DFF8E48008F10E
:100980000408D8F8008028EA0008DFF8D49009F1BC
:100990000409C9F80080D1F8048008F48018B8F57B
:1009A000801F0ED1DFF8B88008F10808D8F8008061
:1009B00048EA0008DFF8A89009F10809C9F80080A2
:1009C0000DE0DFF89C8008F10808D8F8008028EADC
:1009D0000008DFF88C9009F10809C9F80080D1F807
:1009E000048008F40018B8F5001F0ED1DFF87080FD
:1009F00008F10C08D8F8008048EA0008DFF8609099
:100A000009F10C09C9F800800DE0DFF8548008F105
:100A10000C08D8F8008028EA0008DFF8449009F1B3
:100A20000C09C9F800805B1CD1F8008028FA03F893
:100A3000B8F1000F7FF47CAEBDE8F887000011101C
:100A40000010024000080140000C0140001001406D
:100A50000014014000180140001C01400800014042
:100A6000000401400AB1016101E00B040361704719
:100A700001480068704700004800002003480068F3
:100A8000034909780844014908607047480000207C
:100A90005000002010B50848006840F010000649DA
:100AA0000860052000F080F80F2000F007F800F043
:100AB0002BF8002010BD00000020024070B5044655
:100AC0000E4800784FF47A71B1FBF0F00C490968D8
:100AD000B1FBF0F5284600F0F7FB08B1012070BD2E
:100AE000102C07D200222146501E00F01EF80548A7
:100AF000046001E00120F2E70020F0E75000002050
:100B0000440000204C0000207047014608460028A1
:100B100009DB00F01F0301229A4043099B0003F107
:100B2000E023C3F8002100BF70472DE9F05F804645
:100B30000D461646002701F0C5FD074639462A46F0
:100B4000334601F00700C0F1070ABAF1040F02D9D9
:100B50004FF0040A01E0C0F1070AD14600F1040A8F
:100B6000BAF1070F02D24FF0000A01E0A0F1030A28
:100B7000D4464FF0010A0AFA09FAAAF1010A0AEA70
:100B8000020A0AFA0CFA4FF0010B0BFA0CFBABF15C
:100B9000010B0BEA030B4AEA0B042146404601F025
:100BA00099FDBDE8F09F000000BF00F00702064B72
:100BB00019684FF6FF031940044B0B4343EA022127
:100BC000014B196000BF70470CED00E00000FA0512
:100BD00070B504460D460CB9012070BD5A48006836
:100BE00000F00700A8420ED25748006820F0070026
:100BF0002843554908600846006800F00700A842ED
:100C000001D00120E9E7207800F0020002281DD180
:100C1000207800F00400042805D14C48406840F4D6
:100C2000E0604A494860207800F00800082805D1B3
:100C30004648406840F46050444948604348406832
:100C400020F0F000A168084340494860207800F097
:100C5000010078B36068012806D13C48006800F4C0
:100C6000003090B90120B8E76068022806D1374803
:100C7000006800F0007040B90120AEE7334800681A
:100C800000F0020008B90120A7E73048406820F0D2
:100C90000300616808432D494860FFF7E9FE0646F6
:100CA00009E0FFF7E5FE801B41F28831884202D956
:100CB000032092E707E02548406800F00C006168D7
:100CC000B0EB810FEDD12048006800F00700A8428A
:100CD0000ED91D48006820F0070028431A49086013
:100CE0000846006800F00700A84201D0012074E720
:100CF000207800F00400042807D11448406820F44C
:100D0000E060E168084311494860207800F008007D
:100D1000082808D10D48406820F46050216940EA55
:100D2000C1000A49486000F03FF808494968C1F32A
:100D30000311074A515CC84006490860064800682C
:100D4000FFF7BCFE002048E70020024000100240F0
:100D5000CE370008440000204C0000200148006805
:100D6000704700004400002000B5FFF7F7FF04497A
:100D70004968C1F30221034A515CC84000BD00002C
:100D800000100240DE37000800B5FFF7E7FF044916
:100D90004968C1F3C221034A515CC84000BD00004C
:100DA00000100240DE370008F0B585B00FF26C0C81
:100DB0009CE8E01001A8A0E8E0101CA52D680095B3
:100DC00000210022002300240020194D696801F051
:100DD0000C05F5B1042D02D0082D19D101E01548FC
:100DE00019E001ADC1F38346AC5D01F4803555B126
:100DF0000F4D6D68C5F340451DF805200D4D654349
:100E0000B5FBF2F302E00C4D04FB05F3184602E0DB
:100E100000BF084800BF00BF05B0F0BD02030405D5
:100E2000060708090A0B0C0D0E0F10100102000036
:100E30000010024000127A0000093D00F8B5044697
:100E40000CB90120F8BD207800F00100002878D00E
:100E5000F848406800F00C0004280CD0F5484068C1
:100E600000F00C00082811D1F248406800F48030EE
:100E7000B0F5803F0AD1EF48006800F40030002848
:100E80005FD0606800285CD10120DBE700BF6068AC
:100E9000B0F5803F06D1E748006840F48030E5496E
:100EA000086028E0606858B9E248006820F48030A3
:100EB000E04908600846006820F4802008601AE0D5
:100EC0006068B0F5A02F0BD1DA48006840F48020AC
:100ED000D84908600846006840F4803008600AE09D
:100EE000D448006820F48030D24908600846006881
:100EF00020F48020086000BF606888B1FFF7B8FD6B
:100F0000054606E0FFF7B4FD401B642801D9032025
:100F100098E7C848006800F400300028F2D010E0DC
:100F2000FFF7A6FD054606E0FFF7A2FD401B64287B
:100F300001D9032086E7BF48006800F4003000288C
:100F4000F2D1207800F00200022857D1B948406859
:100F500000F00C0050B1B748406800F00C000828C1
:100F600018D1B448406800F4803098B9B14800689E
:100F700000F0020020B12069012801D0012061E7C2
:100F8000AC48006820F0F800616940EAC100A94956
:100F9000086033E02069E8B10120A7490860FFF745
:100FA00067FD054606E0FFF763FD401B022801D9F7
:100FB000032047E79F48006800F002000028F2D0B5
:100FC0009C48006820F0F800616940EAC100994936
:100FD000086013E0002098490860FFF749FD0546C6
:100FE00006E0FFF745FD401B022801D9032029E751
:100FF0009048006800F002000028F2D1207800F04C
:10100000080008282DD1A069B8B101208B490860DB
:10101000FFF72EFD054606E0FFF72AFD401B0228DC
:1010200001D903200EE78348406A00F0020000283F
:10103000F2D0012000F0EEFE13E000207F490860AE
:10104000FFF716FD054606E0FFF712FD401B0228DC
:1010500001D90320F6E67748406A00F00200002834
:10106000F2D1207800F00400042873D100277148E1
:10107000C06900F0805070B900BF6E48C06940F090
:1010800080506C49C8610846C06900F080500090EB
:1010900000BF00BF01276A48006800F48070B0B943
:1010A0006748006840F4807065490860FFF7E0FC1D
:1010B000054606E0FFF7DCFC401B642801D903204D
:1010C000C0E65F48006800F480700028F2D000BFDE
:1010D000E068012806D15748006A40F001005549F0
:1010E000086227E0E06858B95248006A20F0010021
:1010F000504908620846006A20F00400086219E0BE
:10110000E06805280BD14B48006A40F004004949CB
:1011100008620846006A40F0010008620AE045489B
:10112000006A20F00100434908620846006A20F086
:101130000400086200BFE068A0B1FFF799FC054613
:1011400009E0FFF795FC401B41F28831884202D943
:10115000032077E622E03748006A00F0020000280A
:10116000EFD012E0FFF784FC054608E0FFF780FCB3
:10117000401B41F28831884201D9032062E62D48A4
:10118000006A00F002000028F0D1012F05D12948A3
:10119000C06920F080502749C86100BFE069C8B32A
:1011A0002448406800F00C00082860D0E06902285C
:1011B00048D1002020490866FFF75AFC054606E0A2
:1011C000FFF756FC401B022801D903203AE61948D4
:1011D000006800F000700028F2D1206AB0F5803F6E
:1011E00007D11448406820F40030A1680843114931
:1011F0004860D4E9080108430E49496821F4741194
:1012000008430C49486001200B490866FFF730FC91
:10121000054607E03DE0FFF72BFC401B022801D903
:1012200003200FE60348006800F000700028F2D0A9
:101230002FE00000001002400000424280044242C1
:1012400000700040002014490866FFF711FC0546B5
:1012500006E0FFF70DFC401B022801D90320F1E551
:101260000E48006800F000700028F2D111E0E0693B
:10127000012800D1E6E50948466806F48031206A75
:10128000814204D106F47011606A814201D00120CC
:10129000D8E50020D6E500000000424200100240E0
:1012A000042808D14FF0E021096941F004014FF012
:1012B000E022116107E04FF0E021096921F004010B
:1012C0004FF0E0221161704770B504462546681E54
:1012D000B0F1807F01D301200FE0681E4FF0E021C4
:1012E00048610F214FF0FF3001F0F4F900204FF07A
:1012F000E021886107200861002070BD70477047B9
:1013000010B504463148007800F0800000285BD119
:101310002E48007800F04000D0B12C48007840F012
:1013200080002A4908700021294800F055FB29490E
:10133000088027480068006A20F00A0024490968EC
:10134000086223480068006A2149096808623BE096
:1013500000201E4908701F4908801C48007840F092
:1013600040001A49087000BF19480068006A41F23D
:101370001111084068B916480068006A89100840D1
:1013800038B913480068006820F001001049096866
:10139000086000BF00200E49096848620C480068D8
:1013A000006A20F00A000A490968086208480068D3
:1013B000006A07490968086205480068006840F04B
:1013C000010003490968086010BD000060000020AA
:1013D000C8010020620000202DE9F04104460D46BE
:1013E000164600BF94F83C00012802D10220BDE857
:1013F000F081012084F83C0000BF022084F83D0009
:1014000096B9EB68D5E90012206800F023FF206848
:10141000806920F00C002168886120688069A968D3
:101420000843216888613DE0042E13D1EB68D5E9BB
:101430000012206800F04CFF2068806920F44060B2
:101440002168886120688069A96840EA01202168D4
:10145000886127E0082E12D1EB68D5E900122068D8
:1014600000F053FF2068C06920F00C002168C861BB
:101470002068C069A96808432168C86112E0EB6868
:10148000D5E90012206800F05CFF2068C06920F4F4
:1014900040602168C8612068C069A96840EA0120ED
:1014A0002168C861012084F83D0000BF002084F855
:1014B0003C0000BF00BF9AE710B504460CB90120FC
:1014C00010BD94F83D0028B9002084F83C00204667
:1014D00000F00CF8022084F83D00211D206800F087
:1014E00077FD012084F83D000020E9E710B586B0C3
:1014F000044600BF1748C06940F008001549C8619C
:101500000846C06900F00800019000BF00BF00BF9E
:101510000846806940F0040088610846806900F050
:101520000400019000BF00BF012002900020039042
:10153000022004900320059002A90748FFF7F2F863
:10154000002202213220FFF7F0FA3220FFF7DDFA05
:1015500006B010BD001002400008014070B50446FE
:101560000D4635B1042D0BD0082D10D00C2D1CD1FB
:1015700014E02068C06840F002002168C86015E0EF
:101580002068C06840F004002168C8600EE0206850
:10159000C06840F008002168C86007E02068C068A3
:1015A00040F010002168C86000E000BF00BF0122C9
:1015B0002946206800F05AFD2068806800F0070680
:1015C000062E05D02068006840F001002168086000
:1015D000002070BD10B5044620680069C0F34000CB
:1015E000D8B12068C068C0F34000B0B16FF002000D
:1015F00021680861012020772068806900F00300DD
:1016000018B12046FFF77CFE05E0204600F0ADF85B
:10161000204600F08DF90020207720680069C0F393
:101620008000D8B12068C068C0F38000B0B16FF00E
:10163000040021680861022020772068806900F496
:10164000407018B12046FFF75BFE05E0204600F031
:101650008CF8204600F06CF90020207720680069A3
:10166000C0F3C000D8B12068C068C0F3C000B0B1FA
:101670006FF0080021680861042020772068C069A5
:1016800000F0030018B12046FFF73AFE05E02046BF
:1016900000F06BF8204600F04BF90020207720681E
:1016A0000069C0F30010D8B12068C068C0F3001012
:1016B000B0B16FF010002168086108202077206821
:1016C000C06900F4407018B12046FFF719FE05E02C
:1016D000204600F04AF8204600F02AF90020207742
:1016E0002068006900F0010058B12068C06800F06F
:1016F000010030B16FF0010021680861204600F060
:1017000045F920680069C0F3C01058B12068C0686E
:10171000C0F3C01030B16FF080002168086120462E
:10172000FFF7ECFD20680069C0F3801058B1206815
:10173000C068C0F3801030B16FF0400021680861CC
:10174000204600F062F920680069C0F3401058B1EB
:101750002068C068C0F3401030B16FF020002168ED
:1017600008612046FFF7CBFD10BD704770B50446F9
:101770000D46164600BF94F83C00012801D1022016
:1017800070BD012084F83C0000BF022084F83D00B9
:1017900036B1042E1BD0082E31D00C2E5ED145E080
:1017A0002946206800F074FC2068806940F0080039
:1017B000216888612068806920F0040021688861C0
:1017C00020688069296908432168886147E02946C3
:1017D000206800F095FC2068806940F40060216872
:1017E00088612068806920F48060216888612068B1
:1017F0008069296940EA0120216888612FE0294633
:10180000206800F0BBFC2068C06940F00800216837
:10181000C8612068C06920F004002168C8612068A0
:10182000C069296908432168C86118E02946206811
:1018300000F0E0FC2068C06940F400602168C861E5
:101840002068C06920F480602168C8612068C06990
:10185000296940EA01202168C86100E000BF00BF9B
:10186000012084F83D0000BF002084F83C0000BF48
:1018700000BF85E710B504460CB9012010BD94F8EF
:101880003D0028B9002084F83C00204600F00CF808
:10189000022084F83D00211D206800F099FB012002
:1018A00084F83D000020E9E710B586B004461C49E5
:1018B0002068884232D100BF1A48C06940F0020057
:1018C0001849C8610846C06900F00200019000BFD5
:1018D00000BF00BF1449486820F4406040F0E06059
:1018E00040F40060486000BF00BF0E48806940F0CF
:1018F00008000C4988610846806900F008000190E2
:1019000000BF00BF2020029002200390012004901D
:101910000320059002A90548FEF704FF06B010BD9C
:10192000000400400010024000000140000C014093
:101930007047000070B504460E460122314620680B
:1019400000F094FB0F492068884203D00E492068BC
:10195000884201D1012000E0002028B12068406CBD
:1019600040F40040216848642068806800F0070562
:10197000062D05D02068006840F00100216808604D
:10198000002070BD002C014000340140104909784E
:1019900001F08001D1B90E49097801F04001A9B1E7
:1019A0000B49097801F03F013F290AD1084909781C
:1019B00041F08001064A11704FF6FF71054A11800F
:1019C00004E003490978491C014A1170704700007E
:1019D00060000020620000200246002031B104298E
:1019E00007D0082908D00C290CD108E01368586BDF
:1019F00009E01368986B06E01368D86B03E013687E
:101A0000186C00E000BF00BF704770477047014688
:101A10000022002391F8392091F83A3042EA03007D
:101A2000704700002DE9F0470446206805682068EB
:101A3000C668206847694FF00008C14605F00F08E6
:101A4000B8F1000F0AD105F0200038B106F02000EF
:101A500020B1204600F0BDFCBDE8F087B8F1000FD2
:101A60006DD007F0010018B906F49070002866D018
:101A700005F0010030B106F4807018B1E06B40F061
:101A80000100E06305F0040030B107F0010018B177
:101A9000E06B40F00200E06305F0020030B107F0B7
:101AA000010018B1E06B40F00400E06305F00800AD
:101AB00030B107F0010018B1E06B40F00800E063BE
:101AC000E06B68B305F0200028B106F0200010B1EB
:101AD000204600F07EFC20684069C0F38019E06B6E
:101AE00000F0080010B9B9F1000F22D0204600F034
:101AF00050FC2068406900F04000B0B120684069A7
:101B000020F0400021684861606B50B11748616B5C
:101B10004863606BFEF732FD10B1606B416B884724
:101B20000CE02046FFF772FF08E02046FFF76EFF4B
:101B300004E02046FFF76AFF0020E0638CE705F031
:101B4000800030B106F0800018B1204600F064FD3E
:101B500082E705F0400030B106F0400018B12046A1
:101B600000F027FC78E700BF76E700007F2300083D
:101B700010B504460CB9012010BDA06900B100E009
:101B800000BF94F8390028B9002084F838002046B6
:101B900000F028F8242084F839002068C06820F478
:101BA00000502168C860204600F066FC206800698B
:101BB00020F49040216808612068406920F02A00E4
:101BC000216848612068C06840F400502168C860FE
:101BD0000020E063202084F8390084F83A000020D7
:101BE000CAE7000010B586B004462549206888423F
:101BF00044D100BF2348806940F004002149886136
:101C00000846806900F00400019000BF00BF00BFDB
:101C10000846806940F4804088610846806900F485
:101C20008040019000BF00BF00BF0846806940F0BF
:101C3000010088610846806900F00100019000BF42
:101C400000BF481502900220039001200490032059
:101C5000059002A90C48FEF765FD4FF480600290E4
:101C60000020039002A90848FEF75CFD2520FEF73E
:101C70004CFF032211462520FEF757FF06B010BD8A
:101C800000380140001002400008014010B5034632
:101C900093F83A0020282FD101B10AB9012010BDD4
:101CA00000BF93F83800012801D10220F7E7012096
:101CB00083F8380000BF99629A85DA850020D863DE
:101CC000222083F83A0000BF002083F8380000BFCC
:101CD0001868C06840F480701C68E060186840694B
:101CE00040F001001C6860611868C06840F0200086
:101CF0001C68E0600020D2E70220D0E71D4A01689E
:101D0000914236D11C49098801F4004189BB1A4926
:101D1000098801F4804171B1184909780A2903D072
:101D20000021154A118024E01349098841F400413B
:101D3000114A11801DE0114909780D2906D10E497B
:101D4000098841F480410C4A118012E00B4909785E
:101D5000094A1288C2F30D02094B995406490988B1
:101D6000491C054A118011460988C72901DD002157
:101D700011807047003801405C0000205E000020A8
:101D800064000020704700BFFEE7000000B585B08A
:101D900000BF1B48806940F0080019498861084667
:101DA000806900F00800009000BF00BF00BF084637
:101DB000806940F0400088610846806900F040007A
:101DC000009000BF00BF20200190012002900390EE
:101DD0000320049001A90B48FEF7A4FC20200190E9
:101DE00001A90948FEF79EFC012220210548FEF7C3
:101DF00039FE012220210448FEF734FE05B000BD63
:101E000000100240000C01400018014000BFFEE736
:101E10007047704708B508490968C9084FF47A72D5
:101E2000B1FBF2F14143009100BF00BF00994A1E8F
:101E300000920029F9D108BD44000020704730B558
:101E40008FB0054600240120059000040690002074
:101E5000079002200C90C1030D910E9505A8FEF786
:101E6000EDFF04460CB100BFFEE70F2000900220FA
:101E70000190002002904FF48060039000200490B5
:101E800002216846FEF7A4FE04460CB100BFFEE73F
:101E90000FB030BD10B5FEF7F1FD10BD1148006860
:101EA00040F001000F490860084640680E490840AC
:101EB0000C494860084600680C4908400949086018
:101EC0000846006820F4802008600846406820F436
:101ED000FE0048604FF41F008860C8030449086092
:101EE00070470000001002400000FFF8FFFFF6FE00
:101EF00008ED00E010B50248FFF76CFB10BD0000D4
:101F00006C01002070B504460D4610481049086069
:101F10000846456000218160C4600161FFF7AAFCAA
:101F200060200C490860204604EBD0714910094A32
:101F3000516002201146886004220548FFF716FC14
:101F400004210348FFF7F6FC70BD000000040040C8
:101F50006C010020AC0100207FB505460C461648F8
:101F6000164908600846446000218160C56001612F
:101F7000FFF7A2FA002000900120019000200290BB
:101F800001200390002269460C48FFF725FA002142
:101F90000A48FFF7E3FA09480068C06840F001000A
:101FA00006490968C860002202213220FEF7BDFD03
:101FB0003220FEF7AAFD7FBD000C0040C8010020C2
:101FC00010B50248FFF706FB10BD0000C801002055
:101FD00010B50268204B98420ED0204B98420BD08F
:101FE000B0F1804F08D01E4B984205D01D4B98424F
:101FF00002D01D4B984203D122F070024B681A4365
:10200000154B98420ED0154B98420BD0B0F1804F33
:1020100008D0134B984205D0124B984202D0124B75
:10202000984203D122F44072CB681A4322F0800315
:102030004C6943EA040202608B68C3620B688362E6
:10204000054B984202D0054B984201D10B690363BE
:102050000123436110BD0000002C01400034014009
:102060000004004000080040000C004030B501F0C2
:102070001F05012404FA05F3046A9C430462046A00
:1020800001F01F0502FA05F52C43046230BD000083
:1020900030B5056A25F001050562026A4368846966
:1020A00024F0700424F003040D682C4322F0020293
:1020B0008D682A43104DA84200D103E00F4DA8427D
:1020C00006D100BF22F00802CD682A4322F00402A4
:1020D000094DA84202D0094DA84207D123F48073CC
:1020E00023F400734D692B438D692B434360846156
:1020F0004D684563026230BD002C01400034014050
:1021000030B5056A25F010050562026A43688469E6
:1021100024F4E04424F440740D6844EA052422F0D9
:1021200020028D6842EA0512124DA84200D103E058
:10213000114DA84207D100BF22F08002CD6842EACB
:10214000051222F040020B4DA84202D00A4DA842CF
:1021500009D123F4806323F400634D6943EA8503C6
:102160008D6943EA8503436084614D68856302623B
:1021700030BD0000002C01400034014030B5056A3C
:1021800025F480750562026A4368C46924F070040E
:1021900024F003040D682C4322F400728D6842EA97
:1021A0000522124DA84200D103E0114DA84207D1EB
:1021B00000BF22F40062CD6842EA052222F4806268
:1021C0000A4DA84202D00A4DA84209D123F48053F7
:1021D00023F400534D6943EA05138D6943EA05135F
:1021E0004360C4614D68C563026230BD002C01408C
:1021F0000034014030B5056A25F480550562036A54
:102200004468C26922F4E04222F440720D6842EA56
:10221000052223F400538D6843EA0533084DA84294
:1022200002D0084DA84204D124F480444D6944EA08
:1022300085144460C2614D680564036230BD0000CE
:10224000002C014000340140014908607047000043
:102250003804004070B50C461546066A26F00106A3
:1022600006628169026A154EB0420ED0144EB04229
:102270000BD0B0F1804F08D0124EB04205D0124EB4
:10228000B04202D0114EB04201D1012600E000263A
:102290001EB121F00301294301E041F0010121F0C9
:1022A000F001F02606EA0316314322F00A0204F098
:1022B0000A0632438161026270BD0000002C0140B9
:1022C000003401400004004000080040000C0040C1
:1022D00070B50C461546066A26F01006066281693E
:1022E000026A21F4407141EA052121F470414FF462
:1022F000704606EA0336314322F0A002A02606EA21
:10230000041632438161026270BD70B50C461546F9
:10231000066A26F480760662C169026A21F003012A
:10232000294321F0F001F02606EA0316314322F496
:1023300000724FF4007606EA04263243C16102625D
:1023400070BD70B50C461546066A26F480560662C6
:10235000C169026A21F4407141EA052121F470410A
:102360004FF4704606EA0336314322F400524FF42C
:10237000005606EA04363243C161026270BD70B590
:1023800005466C6A0020E085E0842046FFF73EFBAE
:1023900070BD0168C96821F490710268D16001685C
:1023A000496921F0010102685161202180F83A1049
:1023B000704710B504462068C06820F040002168CE
:1023C000C860202084F839002046FFF7DBFC00209D
:1023D00010BD70B5044694F83A0022284AD1A0688E
:1023E000B0F5805F13D1A56A206940B920684068C4
:1023F000C0F308002880A06A801CA06219E0206851
:102400004068C0B22880A06A401CA06211E0206928
:1024100038B920684068C1B2A26A501CA06211702D
:1024200007E02068406800F07F01A26A501CA062AB
:102430001170E08D401E80B2E085C8B92068C06888
:1024400020F020002168C8602068C06820F48070F7
:102450002168C8602068406920F001002168486157
:10246000202084F83A002046FFF748FC002070BD89
:102470000020FCE70220FAE770B5044621680969EC
:1024800021F44051E2681143226811612269A16878
:102490001143626941EA02052168C96841F20C6290
:1024A000914329432268D1602168496921F4407130
:1024B000A269114322685161564A2168914254D160
:1024C000FEF762FC00EBC00101EB001162689200B4
:1024D000B1FBF2F100EBC00202EB001263689B005B
:1024E000B2FBF3F26423B2FBF3F202EBC20303EBA1
:1024F0000212A1EB8201322202EB01116422B1FB34
:10250000F2F101F0F00100EBC00202EB001263688F
:102510009B00B2FBF3F26423B2FBF3F201EB021275
:1025200000EBC00101EB001163689B00B1FBF3F10C
:1025300000EBC00303EB00136668B600B3FBF6F3D1
:102540006426B3FBF6F303EBC30606EB0313A1EB20
:102550008301322303EB01116423B1FBF3F101F09A
:102560000F0111442268916053E0FEF7FDFB00EB80
:10257000C00101EB001162689200B1FBF2F100EBC7
:10258000C00202EB001263689B00B2FBF3F264230B
:10259000B2FBF3F202EBC20303EB0212A1EB8201E6
:1025A000322202EB01116422B1FBF2F101F0F001E1
:1025B00000EBC00202EB001263689B00B2FBF3F277
:1025C0006423B2FBF3F201EB021200EBC00101EB5A
:1025D000001163689B00B1FBF3F100EBC00303EB58
:1025E00000136668B600B3FBF6F36426B3FBF6F39C
:1025F00003EBC30606EB0313A1EB8301322303EBCA
:1026000001116423B1FBF3F101F00F0111442268C1
:10261000916070BD00380140014691F839002128D1
:102620002CD18868B0F5805F0FD10A6A1088C0F39A
:1026300008000B685860086918B9086A801C0862AD
:1026400009E0086A401C086205E00B6A581C086231
:1026500018780B685860C88C401E80B2C88458B97E
:102660000868C06820F080000B68D8600868C068FF
:1026700040F040000B68D860002070470220FCE763
:1026800010B500240C48FFF7CDF900BF01E0641C31
:1026900000BF0948FFF7BBF92028F8D100BF00248C
:1026A00001E0641C00BF012204490348FFF7EEFA71
:1026B0000028F6D100BF10BD2C0100205E000020D4
:1026C00000BFFEE702480068C0F302207047000028
:1026D0000CED00E010B5002804DB0A07130E054AD4
:1026E000135406E00A07140E034A00F00F031B1FE1
:1026F000D45410BD00E400E018ED00E000BF7047C6
:1027000010B504460420FEF7CBFD0148046010BD5F
:102710005400002000BF054A126802F04002002A5F
:10272000F9D0C2B2014B1B1D1A607047003801403E
:1027300086B000BFFEF7AEF94FF4E010FFF77FFB65
:102740004820FFF7DDFF4FF4E13000F009F9FFF713
:102750001DFB00214FF4E150FFF7D4FB47214FF65A
:10276000FF70FFF7F9FB00206849086068490860BE
:102770000021684A11605160674A11605160674AE0
:1027800011605160C1E06648007800F080000028C8
:10279000F8D06348007800F03F00C51704464FF6B4
:1027A000FF7300202146A1FB036705FB037204FBB6
:1027B000002534465B480068241845F10005224690
:1027C0002B4659A0FDF72EFD2046294600F050FB70
:1027D0008046594A594B00F0D9FB064632460B4613
:1027E0000020574900F0BEF9824600F013FB55491E
:1027F0000860464800684649086053490968514ADC
:102800001268881A00F08EFE404908600846006889
:1028100000F0DAFD06463F480CC8304600F0EEF8FE
:102820003C4A03C22046294600F022FB0646424AA3
:10283000424B00F0ABFB384A03C2354801683348CD
:10284000006800F04FFF804600F0BEFD06463248AB
:102850000CC8304600F086F9304A03C23B48006895
:1028600000F0B2FD06462D480CC8304600F08EFB45
:10287000CDE902013648006800F0A6FD82462548F1
:102880000CC8504600F082FB06460F461F48016800
:102890003048006800F05AFE824600F095FD804600
:1028A00032463B4600F0AAF8CDE90001DDE90223FB
:1028B00000F0A4F8CDE9040100F06EF826490860A4
:1028C0000846006800F080FD06460022234B00F019
:1028D0005BFC03D24FF07E501F4908601E48006821
:1028E00000F072FD06460022134600F013FB02D2F0
:1028F0000020194908601848006800F0F3FD0646FA
:10290000FFF7A2FC0020064908703CE710000020F9
:102910000C000020180000202800002030000020BB
:102920006000002062000020484947483A256C6C4E
:10293000642075730D0A00008DEDB5A0F7C6B03E9A
:1029400000004E4000000020080000204000002051
:102950003C00002038000020200000200000F03F54
:1029600010B5044609480A49086008464460002139
:102970008160C160016181610C214161FFF7F8F85C
:10298000012204490248FFF781F910BD00380140D7
:102990002C0100205E00002021F00042A2F16052D4
:1029A000B2F5801F01F0004328BFD2F17F6C0BD934
:1029B0005FEA001C43EAC20242EB507018BF704746
:1029C00028BF20F001007047B2F5801FBCBF184639
:1029D00070474FEA410C1CF5001F02D2084600F078
:1029E0007CBE70B500F07CFB00000089FFF7F6BFED
:1029F0004FF00040A0F580007047000010B591EA4C
:102A0000030F48BF83F0004300F1FC83841A71EB8D
:102A1000030C05D2121943EB0C03001B61EB0C01F4
:102A2000DFF824E14FEA1154A4EB135C1EEA430FD4
:102A300018BF9EEA445F73D023EA0E03DCF1200E38
:102A400021EA045143F4801332D322FA0CFE10EB36
:102A50000E0023FA0CFE41EB0E01CCF1200E03FA1E
:102A60000EFE10EB0E0051F10001B1F5801FCCF10C
:102A7000200E32D201EB045112FA0EF2BDE81040E2
:102A800058BF7047401C38BF5FEA420218BF70470A
:102A9000002814BF20F0010041F100014FEA41037A
:102AA00013F5001F38BF7047A1F1C04100F066BBAD
:102AB000012A43EB0302ACF1200CDCF11F0E32BF04
:102AC0004FF0000E23FA0CF310EB030041EB04511E
:102AD000B4EB115FD0D0A1EB045101F5801149088E
:102AE0005FEA300001EB04510ED350F1000038BF13
:102AF00012FA0EFE08D1BDE81040C9E7401C38BFED
:102B00005FEA4202CAD1C3E7BDE810404FEA410381
:102B100013F5001F38BF7047A1F1C04100F02EBB74
:102B20009EEA445F08D011EA5E0FBDE8104004BF82
:102B300001F0004100207047BDE8104070B500F082
:102B4000CFFA00BF64FBBE3E0000E0FF491058BF53
:102B5000C1F140415B1058BFC3F140438B42EFF3DA
:102B6000008070472DE9C04130B4DFF8A0C23CEAD4
:102B7000111418BF3CEA131400F0EC8081EA03053D
:102B80001CEA111444EAD57418BF1CEA131500F0AE
:102B9000C780A4EB05044FF0004545EAC12145EA92
:102BA000C32341EA505143EA525304F17F749942DE
:102BB00004F500344FEAC0204FEAC22208BF904219
:102BC00000F09C804FEA13650FF24016765D4FEAE5
:102BD000134506FB05F7C7F1807706FB07F74FEAB9
:102BE000D737A7FB03687642C8F58038A7FB06CE27
:102BF00038BFA8F1010807FB08E64FF0000EA6FB5E
:102C0000028CE6FB03CEDCF1000CCEF1004E38BFA7
:102C1000AEF1010EA6FB0C584FF000074FF0000577
:102C2000E6FB0E87A1FB08C6A0FB07CE16EB0E063F
:102C300045F10005E1FB076515F1E04E7EBFA4F507
:102C400080345FEA46066D4116F1800745F10005C4
:102C50004FEA17274FEA066647EA0567A6F1DE4600
:102C6000B6F1805F4FEA15251FD9384624F0010CD4
:102C700005EBC471BCF1FE6F01EB0C1102D8F0BC86
:102C8000BDE8008124425CBF01F5801E9EEAC47F3E
:102C900002D4F0BCBDE80081244238D4F0BCA1F1DC
:102CA000C041BDE8004100F069BA4FEAD22242EAD1
:102CB00043524FEAD323A7FB02864FEAD02040EAD3
:102CC000415007FB03661EEA0E0F4FEAD12105FBB8
:102CD000026658BFA6EB0056B6EB00564FEA520EFE
:102CE0004EEAC37E18EB0E0E56EB530EBDD518EB15
:102CF00002085E417F1C55F10005B6E74FF48015D0
:102D00004FF000074FF000064FF00008ADE7F0BCB1
:102D10004FF0000001F1C04101F00041BDE8008129
:102D200011EA0C1F0CEA131500D00CE013EA0C1F7B
:102D300000F025804FF00000F0BC81EA030101F0B3
:102D40000041BDE80081F0BCBDE8004181EA03011B
:102D500000F014BAF0BCBDE8004170B500F0C0F955
:102D6000097EFC3E00F007B881EA03014FF0000045
:102D700001F00041704781EA030100F0FFB9F0BCA7
:102D8000BDE800414FF0000021497047FFFDFBF90D
:102D9000F7F5F4F2F0EEEDEBE9E8E6E4E3E1E0DE8E
:102DA000DDDBDAD8D7D5D4D3D1D0CFCDCCCBCAC800
:102DB000C7C6C5C4C2C1C0BFBEBDBCBBBAB9B8B727
:102DC000B6B5B4B3B2B1B0AFAEADACABAAA9A8A81A
:102DD000A7A6A5A4A3A3A2A1A09F9F9E9D9C9C9BE8
:102DE0009A99999897979695959493939291919093
:102DF0008F8F8E8E8D8C8C8B8B8A89898888878724
:102E00008685858484838382828181800000FF0798
:102E10000000F87F4FEA1153A3F58063D3F11E033E
:102E2000A8BFD3F1200C08DB4FF0004242EAC122D8
:102E300052EA505232FA03F0704709420BD4102B79
:102E4000C4BF0020704703F5787CBCF1FF3F05D07C
:102E50004FF0FF3070474FF00000704770B500F042
:102E60003FF900BF4992248000207047F0E700003E
:102E70007FEAE17202D1101A62EB0101B1FA81F32B
:102E80000B3B24D3994012D1B0FA80F310FA03F12E
:102E900008BF7047C3F11D0303F5406303EBC22372
:102EA0004FEAD1224FEA415002EB03517047C3F180
:102EB000200C20FA0CFC9840C3F1320303F5406368
:102EC00003EBC22341EA0C0101EB0351704710B53B
:102ED000C3F1320CC3F10004C4F1200E0CF5406CB8
:102EE0000CEBC22201FA0EFC21FA04F100FA0EF3F7
:102EF000E040BDE8104040EA0C0001EB025138BF51
:102F00007047401C41F100015B0008BF20F0010048
:102F10007047000051EA030C17D41CF5801F58BFFE
:102F2000BCF5801F00F10680994218BF704708BFAA
:102F30009042704707D711F5801F58BF13F5801FC7
:102F400019D499427047894270471CF5801F08D5F3
:102F5000BCF5801FF7D58B4218BF704708BF82426F
:102F600070474FF4001C1CEB410F38BF1CEB430FA4
:102F700001D28B42704770B500F0B2F8922449003C
:102F80004FF000514FF08053FFF7E0BDDFF848C12C
:102F900070B51CEA111E1EBF1CEA13159EEA0C0F29
:102FA00095EA0C0F00F06F8081EA030423EA4C13CA
:102FB0004EEAD47E21EA4C1141F4801143F480138F
:102FC000AE44A1FB024CA0FB0365AEF17F7E361937
:102FD00055EB0C05A1FB034C4CF10003A0FB021CBC
:102FE00016EB0C06654153F10003094218BF46F089
:102FF000010613F4007F0BD14FEA03314FEA05308D
:10300000340341EA155140EA16506FF003020AE01A
:103010004FEAC3214FEAC520F40241EA555140EA84
:1030200056506FF0020202EB2E4201EB025585EA88
:10303000CE710AD05FEA440C18BF24F0004450F16E
:10304000000041F1000120EAD47040F2FE7C6245AC
:1030500000D270BDA84214BF4FF080444FF04044EE
:10306000002E08BF0024BEF1806FA8BFA1F1C041AF
:10307000BDE8704080F282804FF0000001F1C04155
:1030800001F0004170479EEA0C0F0CEA131518BFBF
:1030900095EA0C0F06D04FF0000081EA030E0EF007
:1030A000004170BD00F01CF88900013E00F007B837
:1030B00000F009B84FEA430C5FEA5C5C08D081EA93
:1030C000030100F05BB84FEA410C5FEA5C5CF6D1AB
:1030D0004FF00000014970470000FF070000F87F33
:1030E0000EF1020E2EF0030E5EF8046B364205D48C
:1030F000012A43EB030515F5001F12D8012841EB07
:10310000010C1CF5001F0CD80ED14FEAD17C15F52F
:10311000001F0CEB4C0C0CF1020C08BF4CEBD37CE9
:1031200004E04FF0080C01E04FEAD37C0CEB4C05B7
:1031300026FA05F606F00706B6F1040C06D20EEBE9
:10314000860CBDE870404CF0010C6047DFE80CF0E5
:10315000090B02024FF000414FF00000A1F50021E1
:1031600070BD19461046012851EB010418BFD4F573
:10317000001484BF002001F0004170BD0808A0F5D4
:1031800000114FEA3101704753EA010C17D41CF5C6
:10319000801F58BFBCF5801F00F106808B4218BF0E
:1031A000704708BF8242704707D713F5801F58BF8A
:1031B00011F5801F19D48B4270479B4270471CF554
:1031C000801F08D5BCF5801FF7D5994218BF7047FE
:1031D00008BF904270474FF4001C1CEB430F38BFF0
:1031E0001CEB410F01D2994270470FB40CBC03BCD9
:1031F000FFF7C1BE10B591EA030F48BF83F000434B
:103200003FF504AC841A71EB030C07D212198CF051
:10321000004C43EB0C03001B61EB0C01DFF8A4E155
:103220004FEA1154A4EB135C1EEA430F18BF9EEA49
:10323000445F00F0B08023EA6E03524221EA045159
:10324000C3EB6E0338BF5B1EDCF1200E25D322FAE0
:103250000CFE10EB0E0043FA0CFE41EB0E01CCF11C
:10326000200E03FA0EFE10EB0E0051F10001CCF11E
:10327000200E29D412FA0EF201EB0451BDE81040E1
:1032800058BF7047401C1CBFB2F1004F7047002868
:103290000CBF491C20F00100704712EB020E43EBFB
:1032A000030218BF4FF0010E4EEA4202ACF1200CAF
:1032B000DCF11E0E54D943FA0CFE10EB0E0051F156
:1032C000FF31CCF11E0ED5D50EF1010E12FA0EFE15
:1032D000404141EB010101EB445C5FEA5C5C10D9C9
:1032E00010EBDE7001EB045138BFBEF1004FBDE8BA
:1032F000104018BF704700280CBF491C20F0010087
:10330000704730D24FEAD42C11F5001124F4006438
:103310001BD0B1FA81F20B3AA41AA41ED2F12003F9
:10332000914030FA03F31943904001EBCC71002C2B
:1033300001EB0451BDE81040A8BF704701F1C04146
:103340004FF0000001F000417047B0FA80F310FA2E
:1033500003F100D110BDE41A173C4805C90AE4E79F
:1033600001EB045110BD491001EB0451BDE81040C0
:103370004FEA300002E04FF0000170474A0008BFFA
:103380000042F8D0B2F5001F28BF704701F000419D
:103390004FF0000070479EEA445F07D011EA5E0FCD
:1033A000BDE8104004BF002100207047BDE8104078
:1033B00070B5FFF795FE00BF40DFF63E83F0004199
:1033C000104670470000E0FF43004FEAD30C4FEA7D
:1033D0003C0C43401FBF40070CF1605113F0FE4FFF
:1033E00070471CF0006F03D100200CF000417047C3
:1033F0000CF0004343EA507010B540EACC0000F0F6
:1034000026F900BF000000924FEA0001FFF7B6BEA8
:103410004FF000414FF00000A1F50021704700007F
:1034200090EA010F48BF81F0004100F16281421A29
:103430003CBF801A89184FEAD0524FF07F4C1CEAEB
:10344000410FA2EBD15318BF9CEA026F00F03B8002
:103450004FF0004C4CEA00204CEA012121FA03FC19
:1034600010EB0C0C1ED202F1FF325FEA1C2040EB85
:10347000C25038BF70471CF07F0F4FEA400C18BF96
:10348000BCF17F4F38BF7047C3F12003994008BF9C
:1034900020F00100BCF17F4F38BF7047A0F1C04061
:1034A00000F01BB94FEA3C00000A40EBC25028BFB5
:1034B0001CF0FF0F4FEA400CE6D018BFBCF17F4F65
:1034C00038BF7047EAE79CEA026F05D010EA5C0F4C
:1034D00008BF00F00040704710B500F0B8F800BF1A
:1034E00064FBBE3EC10DD1F19E0206DB4FEA002314
:1034F00043F0004323FA02F07047004207D54FEA39
:103500004001B1F1FE4F02D24FF00000704710B5FC
:1035100000F09DF849922480002070476FEA200057
:1035200070470000B0FA80F310FA03F2C3F19D0374
:103530000AD0D90501EB1220530638BF704700F1BD
:10354000010008BF20F00100704700004FF47F0C1D
:103550001CEAD0121EBF1CEAD11392EA0C0F93EAA8
:103560000C0F00F0478090EA010F48BF42F48072D0
:103570004FF0004C4CEA00204CEA012102EB030220
:10358000A0FB0113A2F50002002918BF43F00103BC
:103590005B0028BF4FEA330342EB22425FEA132C61
:1035A0004CEBC2502EBFBCEB436FB2F57C0F7047A3
:1035B0004FEA036CBCF1004F08BF20F00100B2F5E8
:1035C0007C0F38BF70470BD582F0FF0212F5803FA9
:1035D000C8BF704700F1C040D8BF00F0004070473E
:1035E00000F5000C5FEA4C0C48BF7047B0F1C040DA
:1035F00000F073B890EA010F0CEAD11348BF42F40F
:103600008072624538BF634504D280EA010000F051
:103610000040704710B500F01AF800BF8900013E65
:1036200000F007B800F009B85FEA410C5FEA1C6CD3
:1036300008D080EA010000F050B85FEA400C5FEA71
:103640001C6CF6D14FF00040A0F5800070470EF1E1
:10365000020E2EF0030E5EF8044B244204D44FEA0F
:103660004102B2F17F4F11D84FEA4003B3F17F4FCF
:103670000CD80ED14FEAD07CB2F17F4F0CEB4C0C42
:103680000CF1020C08BF4CEBD17C04E04FF0080CAD
:1036900001E04FEAD17C0CEB4C0324FA03F404F074
:1036A0000704B4F1040C06D20EEB840CBDE8104004
:1036B0004CF0010C6047DFE80CF0070802024FF005
:1036C0000040A0F5800010BD0846420018BFD2F1AE
:1036D000807288BF00F0004010BDFF2141EAD05049
:1036E000C005704790EA010F48BF81F000413FF5E7
:1036F0009EAE421A04D882F00042A0EB02001144B0
:103700004FEAD0524FF07F4C1CEA410FA2EBD1534D
:1037100018BF9CEA026F4AD04FF0004C4CEA0020E0
:103720004CEA012121FA03FCB0EB0C0C0FD412F08F
:10373000FE0F36D05FEA4C001DD5001240EBC250A0
:1037400038BF70471CF03F0F18BF70470BE0A2F165
:1037500001025FEA1C2040EBC25038BF70471CF0EA
:103760007F0F18BF7047C3F12003994014BF401E5C
:1037700020F00100704780084FEA122308BF70470D
:10378000B0FA80FCA2EB0C02CCF1280C60FA0CF031
:1037900093EA122F04BF00EBC25070474FEAC37088
:1037A0007047130A5FEADC1008BF7047F6E79CEA2F
:1037B000026F04D010EA5C0F08BF0020704710B5FC
:1037C000FFF745FF40DFF63E81F000407047000004
:1037D00000000000000001020304060708090000C1
:1037E0000000010203040000083800080000002067
:1037F000640000006C0100086C38000864000020C0
:10380000040800008801000800000000000000001B
:1038100000000000000000000000000000000000A8
:103820000000000000000000000000000000000098
:103830000000000000000000000000000000000088
:103840000000A041CDCCCC3DCDCCCC3D0024F4003B
:103850000000000010000000010000000000000057
:0C3860000000000000000000000000005C
:0400000508000131BD
:00000001FF
